{
  "contractName": "ToDoList",
  "abi": [
    {
      "inputs": [],
      "stateMutability": "nonpayable",
      "type": "constructor"
    },
    {
      "anonymous": false,
      "inputs": [
        {
          "indexed": true,
          "internalType": "uint256",
          "name": "id",
          "type": "uint256"
        },
        {
          "indexed": false,
          "internalType": "bool",
          "name": "completed",
          "type": "bool"
        }
      ],
      "name": "TaskCompleted",
      "type": "event"
    },
    {
      "anonymous": false,
      "inputs": [
        {
          "indexed": true,
          "internalType": "uint256",
          "name": "id",
          "type": "uint256"
        },
        {
          "indexed": false,
          "internalType": "string",
          "name": "content",
          "type": "string"
        },
        {
          "indexed": false,
          "internalType": "bool",
          "name": "completed",
          "type": "bool"
        }
      ],
      "name": "TaskCreated",
      "type": "event"
    },
    {
      "anonymous": false,
      "inputs": [
        {
          "indexed": true,
          "internalType": "uint256",
          "name": "id",
          "type": "uint256"
        }
      ],
      "name": "TaskDeleted",
      "type": "event"
    },
    {
      "anonymous": false,
      "inputs": [
        {
          "indexed": true,
          "internalType": "uint256",
          "name": "id",
          "type": "uint256"
        },
        {
          "indexed": false,
          "internalType": "string",
          "name": "content",
          "type": "string"
        }
      ],
      "name": "TaskEdited",
      "type": "event"
    },
    {
      "inputs": [
        {
          "internalType": "uint256",
          "name": "",
          "type": "uint256"
        }
      ],
      "name": "tasks",
      "outputs": [
        {
          "internalType": "uint256",
          "name": "id",
          "type": "uint256"
        },
        {
          "internalType": "string",
          "name": "content",
          "type": "string"
        },
        {
          "internalType": "bool",
          "name": "completed",
          "type": "bool"
        },
        {
          "internalType": "bool",
          "name": "deleted",
          "type": "bool"
        }
      ],
      "stateMutability": "view",
      "type": "function"
    },
    {
      "inputs": [],
      "name": "tasksCount",
      "outputs": [
        {
          "internalType": "uint256",
          "name": "",
          "type": "uint256"
        }
      ],
      "stateMutability": "view",
      "type": "function"
    },
    {
      "inputs": [
        {
          "internalType": "string",
          "name": "_content",
          "type": "string"
        }
      ],
      "name": "createTask",
      "outputs": [],
      "stateMutability": "nonpayable",
      "type": "function"
    },
    {
      "inputs": [
        {
          "internalType": "uint256",
          "name": "_id",
          "type": "uint256"
        }
      ],
      "name": "toggleCompleted",
      "outputs": [],
      "stateMutability": "nonpayable",
      "type": "function"
    },
    {
      "inputs": [
        {
          "internalType": "uint256",
          "name": "_id",
          "type": "uint256"
        },
        {
          "internalType": "string",
          "name": "_newContent",
          "type": "string"
        }
      ],
      "name": "editTask",
      "outputs": [],
      "stateMutability": "nonpayable",
      "type": "function"
    },
    {
      "inputs": [
        {
          "internalType": "uint256",
          "name": "_id",
          "type": "uint256"
        }
      ],
      "name": "deleteTask",
      "outputs": [],
      "stateMutability": "nonpayable",
      "type": "function"
    },
    {
      "inputs": [
        {
          "internalType": "uint256",
          "name": "_id",
          "type": "uint256"
        }
      ],
      "name": "getTask",
      "outputs": [
        {
          "components": [
            {
              "internalType": "uint256",
              "name": "id",
              "type": "uint256"
            },
            {
              "internalType": "string",
              "name": "content",
              "type": "string"
            },
            {
              "internalType": "bool",
              "name": "completed",
              "type": "bool"
            },
            {
              "internalType": "bool",
              "name": "deleted",
              "type": "bool"
            }
          ],
          "internalType": "struct ToDoList.Task",
          "name": "",
          "type": "tuple"
        }
      ],
      "stateMutability": "view",
      "type": "function"
    }
  ],
  "bytecode": "0x608060405234801561001057600080fd5b506000600155610a88806100256000396000f3fe608060405234801561001057600080fd5b506004361061007d5760003560e01c8063560f31921161005b578063560f3192146100d35780638d977672146100e6578063bb6a0f0714610109578063cb7bd9951461011e5761007d565b8063111002aa146100825780631d65e77e14610097578063455f5024146100c0575b600080fd5b610095610090366004610795565b610131565b005b6100aa6100a53660046107d0565b610233565b6040516100b79190610956565b60405180910390f35b6100956100ce3660046107d0565b61037a565b6100956100e13660046107d0565b610436565b6100f96100f43660046107d0565b6104ac565b6040516100b794939291906109a9565b610111610563565b6040516100b791906109a0565b61009561012c3660046107e8565b610569565b600081511161015b5760405162461bcd60e51b8152600401610152906108f1565b60405180910390fd5b6001805490600061016b83610a15565b9091555050604080516080810182526001805480835260208084018681526000858701819052606086018190529283528282529490912083518155935180519394936101be93850192919091019061064f565b506040828101516002909201805460609094015115156101000261ff001993151560ff19909516949094179290921692909217905560015490517f05d0fb833127fc08168556d0e7ca9554fc3f6bc843b3b7d2bf1c35aea6bab6609061022890849060009061089d565b60405180910390a250565b61023b6106d3565b60008211801561024d57506001548211155b6102695760405162461bcd60e51b815260040161015290610928565b600082815260208190526040902060020154610100900460ff16156102a05760405162461bcd60e51b8152600401610152906108c1565b600082815260208181526040918290208251608081019093528054835260018101805491928401916102d1906109da565b80601f01602080910402602001604051908101604052809291908181526020018280546102fd906109da565b801561034a5780601f1061031f5761010080835404028352916020019161034a565b820191906000526020600020905b81548152906001019060200180831161032d57829003601f168201915b50505091835250506002919091015460ff8082161515602084015261010090910416151560409091015292915050565b60008111801561038c57506001548111155b6103a85760405162461bcd60e51b815260040161015290610928565b600081815260208190526040902060020154610100900460ff16156103df5760405162461bcd60e51b8152600401610152906108c1565b60008181526020819052604090819020600201805460ff19811660ff918216151791829055915183927fe21fa966ca5cd02748c0752352d18c48165e61cb55b4c29cccf924b5a95fcff19261022892911690610878565b60008111801561044857506001548111155b6104645760405162461bcd60e51b815260040161015290610928565b600081815260208190526040808220600201805461ff0019166101001790555182917fd078b251d950cc55c44340be1db732337ef4939a76e1367ee271ad2cb19c46af91a250565b600060208190529081526040902080546001820180549192916104ce906109da565b80601f01602080910402602001604051908101604052809291908181526020018280546104fa906109da565b80156105475780601f1061051c57610100808354040283529160200191610547565b820191906000526020600020905b81548152906001019060200180831161052a57829003601f168201915b5050506002909301549192505060ff8082169161010090041684565b60015481565b60008211801561057b57506001548211155b6105975760405162461bcd60e51b815260040161015290610928565b600082815260208190526040902060020154610100900460ff16156105ce5760405162461bcd60e51b8152600401610152906108c1565b60008151116105ef5760405162461bcd60e51b8152600401610152906108f1565b60008281526020818152604090912082516106129260019092019184019061064f565b50817f126a0ea5197c062eb92c789989294eb8d2aef31cf41fd012da26dfab98b29a16826040516106439190610883565b60405180910390a25050565b82805461065b906109da565b90600052602060002090601f01602090048101928261067d57600085556106c3565b82601f1061069657805160ff19168380011785556106c3565b828001600101855582156106c3579182015b828111156106c35782518255916020019190600101906106a8565b506106cf9291506106ff565b5090565b604051806080016040528060008152602001606081526020016000151581526020016000151581525090565b5b808211156106cf5760008155600101610700565b600082601f830112610724578081fd5b813567ffffffffffffffff8082111561073f5761073f610a3c565b604051601f8301601f19168101602001828111828210171561076357610763610a3c565b60405282815284830160200186101561077a578384fd5b82602086016020830137918201602001929092529392505050565b6000602082840312156107a6578081fd5b813567ffffffffffffffff8111156107bc578182fd5b6107c884828501610714565b949350505050565b6000602082840312156107e1578081fd5b5035919050565b600080604083850312156107fa578081fd5b82359150602083013567ffffffffffffffff811115610817578182fd5b61082385828601610714565b9150509250929050565b60008151808452815b8181101561085257602081850181015186830182015201610836565b818111156108635782602083870101525b50601f01601f19169290920160200192915050565b901515815260200190565b600060208252610896602083018461082d565b9392505050565b6000604082526108b0604083018561082d565b905082151560208301529392505050565b6020808252601690820152752a30b9b5903430b9903132b2b7103232b632ba32b21760511b604082015260600190565b6020808252601d908201527f5461736b20636f6e74656e742063616e6e6f7420626520656d7074792e000000604082015260600190565b6020808252601490820152732a30b9b5903237b2b9903737ba1032bc34b9ba1760611b604082015260600190565b6000602082528251602083015260208301516080604084015261097c60a084018261082d565b90506040840151151560608401526060840151151560808401528091505092915050565b90815260200190565b6000858252608060208301526109c2608083018661082d565b93151560408301525090151560609091015292915050565b6002810460018216806109ee57607f821691505b60208210811415610a0f57634e487b7160e01b600052602260045260246000fd5b50919050565b6000600019821415610a3557634e487b7160e01b81526011600452602481fd5b5060010190565b634e487b7160e01b600052604160045260246000fdfea2646970667358221220375e21f05b82364c47bd3378596077c675072d6d27ef63ff4ace6aade00e4d9064736f6c63430008000033",
  "immutableReferences": {},
  "source": "\r\n\r\n// SPDX-License-Identifier: MIT\r\npragma solidity ^0.8.0;\r\n\r\ncontract ToDoList {\r\n    struct Task {\r\n        uint id;\r\n        string content;\r\n        bool completed;\r\n        bool deleted; \r\n       \r\n    }\r\n\r\n    event TaskCreated(uint indexed id, string content, bool completed);\r\n    event TaskCompleted(uint indexed id, bool completed);\r\n    event TaskEdited(uint indexed id, string content);\r\n    event TaskDeleted(uint indexed id);\r\n\r\n    mapping(uint => Task) public tasks;\r\n    uint public tasksCount;\r\n\r\n    constructor() {\r\n        tasksCount = 0;\r\n    }\r\n\r\n    function createTask(string memory _content) public {\r\n        require(bytes(_content).length > 0, \"Task content cannot be empty.\");\r\n        tasksCount++;\r\n        tasks[tasksCount] = Task(tasksCount, _content, false, false); // Initialize 'deleted' as false\r\n        emit TaskCreated(tasksCount, _content, false);\r\n    }\r\n\r\n    function toggleCompleted(uint _id) public {\r\n        require(_id > 0 && _id <= tasksCount, \"Task does not exist.\");\r\n        require(!tasks[_id].deleted, \"Task has been deleted.\");\r\n        tasks[_id].completed = !tasks[_id].completed;\r\n        emit TaskCompleted(_id, tasks[_id].completed);\r\n    }\r\n\r\n    function editTask(uint _id, string memory _newContent) public {\r\n        require(_id > 0 && _id <= tasksCount, \"Task does not exist.\");\r\n        require(!tasks[_id].deleted, \"Task has been deleted.\");\r\n        require(bytes(_newContent).length > 0, \"Task content cannot be empty.\");\r\n        tasks[_id].content = _newContent;\r\n        emit TaskEdited(_id, _newContent);\r\n    }\r\n\r\n    function deleteTask(uint _id) public {\r\n        require(_id > 0 && _id <= tasksCount, \"Task does not exist.\");\r\n        tasks[_id].deleted = true; // Mark the task as deleted\r\n        emit TaskDeleted(_id);\r\n    }\r\n\r\n    function getTask(uint _id) public view returns (Task memory) {\r\n        require(_id > 0 && _id <= tasksCount, \"Task does not exist.\");\r\n        require(!tasks[_id].deleted, \"Task has been deleted.\");\r\n        return tasks[_id];\r\n    }\r\n}\r\n\r\n",
  "sourcePath": "D:\\React_smart_contract\\smart_contract\\contracts\\TodoList.sol",
  "compiler": {
    "name": "solc",
    "version": "0.8.0+commit.c7dfd78e.Emscripten.clang"
  },
  "schemaVersion": "3.4.16",
  "updatedAt": "2024-04-06T16:50:50.503Z",
  "devdoc": {
    "kind": "dev",
    "methods": {},
    "version": 1
  },
  "userdoc": {
    "kind": "user",
    "methods": {},
    "version": 1
  }
}