{
  "contractName": "ToDoList",
  "abi": [
    {
      "inputs": [],
      "stateMutability": "nonpayable",
      "type": "constructor"
    },
    {
      "anonymous": false,
      "inputs": [
        {
          "indexed": true,
          "internalType": "uint256",
          "name": "id",
          "type": "uint256"
        },
        {
          "indexed": false,
          "internalType": "bool",
          "name": "completed",
          "type": "bool"
        }
      ],
      "name": "TaskCompleted",
      "type": "event"
    },
    {
      "anonymous": false,
      "inputs": [
        {
          "indexed": true,
          "internalType": "uint256",
          "name": "id",
          "type": "uint256"
        },
        {
          "indexed": false,
          "internalType": "string",
          "name": "content",
          "type": "string"
        },
        {
          "indexed": false,
          "internalType": "bool",
          "name": "completed",
          "type": "bool"
        }
      ],
      "name": "TaskCreated",
      "type": "event"
    },
    {
      "anonymous": false,
      "inputs": [
        {
          "indexed": true,
          "internalType": "uint256",
          "name": "id",
          "type": "uint256"
        }
      ],
      "name": "TaskDeleted",
      "type": "event"
    },
    {
      "anonymous": false,
      "inputs": [
        {
          "indexed": true,
          "internalType": "uint256",
          "name": "id",
          "type": "uint256"
        },
        {
          "indexed": false,
          "internalType": "string",
          "name": "content",
          "type": "string"
        }
      ],
      "name": "TaskEdited",
      "type": "event"
    },
    {
      "inputs": [
        {
          "internalType": "uint256",
          "name": "",
          "type": "uint256"
        }
      ],
      "name": "tasks",
      "outputs": [
        {
          "internalType": "uint256",
          "name": "id",
          "type": "uint256"
        },
        {
          "internalType": "string",
          "name": "content",
          "type": "string"
        },
        {
          "internalType": "bool",
          "name": "completed",
          "type": "bool"
        },
        {
          "internalType": "bool",
          "name": "deleted",
          "type": "bool"
        }
      ],
      "stateMutability": "view",
      "type": "function",
      "constant": true
    },
    {
      "inputs": [],
      "name": "tasksCount",
      "outputs": [
        {
          "internalType": "uint256",
          "name": "",
          "type": "uint256"
        }
      ],
      "stateMutability": "view",
      "type": "function",
      "constant": true
    },
    {
      "inputs": [
        {
          "internalType": "string",
          "name": "_content",
          "type": "string"
        }
      ],
      "name": "createTask",
      "outputs": [],
      "stateMutability": "nonpayable",
      "type": "function"
    },
    {
      "inputs": [
        {
          "internalType": "uint256",
          "name": "_id",
          "type": "uint256"
        }
      ],
      "name": "toggleCompleted",
      "outputs": [],
      "stateMutability": "nonpayable",
      "type": "function"
    },
    {
      "inputs": [
        {
          "internalType": "uint256",
          "name": "_id",
          "type": "uint256"
        },
        {
          "internalType": "string",
          "name": "_newContent",
          "type": "string"
        }
      ],
      "name": "editTask",
      "outputs": [],
      "stateMutability": "nonpayable",
      "type": "function"
    },
    {
      "inputs": [
        {
          "internalType": "uint256",
          "name": "_id",
          "type": "uint256"
        }
      ],
      "name": "deleteTask",
      "outputs": [],
      "stateMutability": "nonpayable",
      "type": "function"
    },
    {
      "inputs": [
        {
          "internalType": "uint256",
          "name": "_id",
          "type": "uint256"
        }
      ],
      "name": "getTask",
      "outputs": [
        {
          "components": [
            {
              "internalType": "uint256",
              "name": "id",
              "type": "uint256"
            },
            {
              "internalType": "string",
              "name": "content",
              "type": "string"
            },
            {
              "internalType": "bool",
              "name": "completed",
              "type": "bool"
            },
            {
              "internalType": "bool",
              "name": "deleted",
              "type": "bool"
            }
          ],
          "internalType": "struct ToDoList.Task",
          "name": "",
          "type": "tuple"
        }
      ],
      "stateMutability": "view",
      "type": "function",
      "constant": true
    }
  ],
  "bytecode": "0x608060405234801561001057600080fd5b50600060018190555061102b806100286000396000f3fe608060405234801561001057600080fd5b506004361061007d5760003560e01c8063560f31921161005b578063560f3192146100ea5780638d97767214610106578063bb6a0f0714610139578063cb7bd995146101575761007d565b8063111002aa146100825780631d65e77e1461009e578063455f5024146100ce575b600080fd5b61009c600480360381019061009791906109fa565b610173565b005b6100b860048036038101906100b39190610a3b565b6102b6565b6040516100c59190610d56565b60405180910390f35b6100e860048036038101906100e39190610a3b565b610468565b005b61010460048036038101906100ff9190610a3b565b6105c9565b005b610120600480360381019061011b9190610a3b565b610678565b6040516101309493929190610d93565b60405180910390f35b61014161074a565b60405161014e9190610d78565b60405180910390f35b610171600480360381019061016c9190610a64565b610750565b005b60008151116101b7576040517f08c379a00000000000000000000000000000000000000000000000000000000081526004016101ae90610d16565b60405180910390fd5b600160008154809291906101ca90610ef7565b9190505550604051806080016040528060015481526020018281526020016000151581526020016000151581525060008060015481526020019081526020016000206000820151816000015560208201518160010190805190602001906102329291906108ae565b5060408201518160020160006101000a81548160ff02191690831515021790555060608201518160020160016101000a81548160ff0219169083151502179055509050506001547f05d0fb833127fc08168556d0e7ca9554fc3f6bc843b3b7d2bf1c35aea6bab6608260006040516102ab929190610cc6565b60405180910390a250565b6102be610934565b6000821180156102d057506001548211155b61030f576040517f08c379a000000000000000000000000000000000000000000000000000000000815260040161030690610d36565b60405180910390fd5b60008083815260200190815260200160002060020160019054906101000a900460ff1615610372576040517f08c379a000000000000000000000000000000000000000000000000000000000815260040161036990610cf6565b60405180910390fd5b600080838152602001908152602001600020604051806080016040529081600082015481526020016001820180546103a990610ec5565b80601f01602080910402602001604051908101604052809291908181526020018280546103d590610ec5565b80156104225780601f106103f757610100808354040283529160200191610422565b820191906000526020600020905b81548152906001019060200180831161040557829003601f168201915b505050505081526020016002820160009054906101000a900460ff161515151581526020016002820160019054906101000a900460ff1615151515815250509050919050565b60008111801561047a57506001548111155b6104b9576040517f08c379a00000000000000000000000000000000000000000000000000000000081526004016104b090610d36565b60405180910390fd5b60008082815260200190815260200160002060020160019054906101000a900460ff161561051c576040517f08c379a000000000000000000000000000000000000000000000000000000000815260040161051390610cf6565b60405180910390fd5b60008082815260200190815260200160002060020160009054906101000a900460ff161560008083815260200190815260200160002060020160006101000a81548160ff021916908315150217905550807fe21fa966ca5cd02748c0752352d18c48165e61cb55b4c29cccf924b5a95fcff160008084815260200190815260200160002060020160009054906101000a900460ff166040516105be9190610c89565b60405180910390a250565b6000811180156105db57506001548111155b61061a576040517f08c379a000000000000000000000000000000000000000000000000000000000815260040161061190610d36565b60405180910390fd5b600160008083815260200190815260200160002060020160016101000a81548160ff021916908315150217905550807fd078b251d950cc55c44340be1db732337ef4939a76e1367ee271ad2cb19c46af60405160405180910390a250565b60006020528060005260406000206000915090508060000154908060010180546106a190610ec5565b80601f01602080910402602001604051908101604052809291908181526020018280546106cd90610ec5565b801561071a5780601f106106ef5761010080835404028352916020019161071a565b820191906000526020600020905b8154815290600101906020018083116106fd57829003601f168201915b5050505050908060020160009054906101000a900460ff16908060020160019054906101000a900460ff16905084565b60015481565b60008211801561076257506001548211155b6107a1576040517f08c379a000000000000000000000000000000000000000000000000000000000815260040161079890610d36565b60405180910390fd5b60008083815260200190815260200160002060020160019054906101000a900460ff1615610804576040517f08c379a00000000000000000000000000000000000000000000000000000000081526004016107fb90610cf6565b60405180910390fd5b6000815111610848576040517f08c379a000000000000000000000000000000000000000000000000000000000815260040161083f90610d16565b60405180910390fd5b8060008084815260200190815260200160002060010190805190602001906108719291906108ae565b50817f126a0ea5197c062eb92c789989294eb8d2aef31cf41fd012da26dfab98b29a16826040516108a29190610ca4565b60405180910390a25050565b8280546108ba90610ec5565b90600052602060002090601f0160209004810192826108dc5760008555610923565b82601f106108f557805160ff1916838001178555610923565b82800160010185558215610923579182015b82811115610922578251825591602001919060010190610907565b5b5090506109309190610960565b5090565b604051806080016040528060008152602001606081526020016000151581526020016000151581525090565b5b80821115610979576000816000905550600101610961565b5090565b600061099061098b84610e10565b610ddf565b9050828152602081018484840111156109a857600080fd5b6109b3848285610e83565b509392505050565b600082601f8301126109cc57600080fd5b81356109dc84826020860161097d565b91505092915050565b6000813590506109f481610fde565b92915050565b600060208284031215610a0c57600080fd5b600082013567ffffffffffffffff811115610a2657600080fd5b610a32848285016109bb565b91505092915050565b600060208284031215610a4d57600080fd5b6000610a5b848285016109e5565b91505092915050565b60008060408385031215610a7757600080fd5b6000610a85858286016109e5565b925050602083013567ffffffffffffffff811115610aa257600080fd5b610aae858286016109bb565b9150509250929050565b610ac181610e6d565b82525050565b610ad081610e6d565b82525050565b6000610ae182610e40565b610aeb8185610e4b565b9350610afb818560208601610e92565b610b0481610fcd565b840191505092915050565b6000610b1a82610e40565b610b248185610e5c565b9350610b34818560208601610e92565b610b3d81610fcd565b840191505092915050565b6000610b55601683610e5c565b91507f5461736b20686173206265656e2064656c657465642e000000000000000000006000830152602082019050919050565b6000610b95601d83610e5c565b91507f5461736b20636f6e74656e742063616e6e6f7420626520656d7074792e0000006000830152602082019050919050565b6000610bd5601483610e5c565b91507f5461736b20646f6573206e6f742065786973742e0000000000000000000000006000830152602082019050919050565b6000608083016000830151610c206000860182610c6b565b5060208301518482036020860152610c388282610ad6565b9150506040830151610c4d6040860182610ab8565b506060830151610c606060860182610ab8565b508091505092915050565b610c7481610e79565b82525050565b610c8381610e79565b82525050565b6000602082019050610c9e6000830184610ac7565b92915050565b60006020820190508181036000830152610cbe8184610b0f565b905092915050565b60006040820190508181036000830152610ce08185610b0f565b9050610cef6020830184610ac7565b9392505050565b60006020820190508181036000830152610d0f81610b48565b9050919050565b60006020820190508181036000830152610d2f81610b88565b9050919050565b60006020820190508181036000830152610d4f81610bc8565b9050919050565b60006020820190508181036000830152610d708184610c08565b905092915050565b6000602082019050610d8d6000830184610c7a565b92915050565b6000608082019050610da86000830187610c7a565b8181036020830152610dba8186610b0f565b9050610dc96040830185610ac7565b610dd66060830184610ac7565b95945050505050565b6000604051905081810181811067ffffffffffffffff82111715610e0657610e05610f9e565b5b8060405250919050565b600067ffffffffffffffff821115610e2b57610e2a610f9e565b5b601f19601f8301169050602081019050919050565b600081519050919050565b600082825260208201905092915050565b600082825260208201905092915050565b60008115159050919050565b6000819050919050565b82818337600083830152505050565b60005b83811015610eb0578082015181840152602081019050610e95565b83811115610ebf576000848401525b50505050565b60006002820490506001821680610edd57607f821691505b60208210811415610ef157610ef0610f6f565b5b50919050565b6000610f0282610e79565b91507fffffffffffffffffffffffffffffffffffffffffffffffffffffffffffffffff821415610f3557610f34610f40565b5b600182019050919050565b7f4e487b7100000000000000000000000000000000000000000000000000000000600052601160045260246000fd5b7f4e487b7100000000000000000000000000000000000000000000000000000000600052602260045260246000fd5b7f4e487b7100000000000000000000000000000000000000000000000000000000600052604160045260246000fd5b6000601f19601f8301169050919050565b610fe781610e79565b8114610ff257600080fd5b5056fea26469706673582212208d478d6804f5ccab6415257a43688fa826b356c0427c82e2586600c51034849664736f6c63430008000033",
  "immutableReferences": {},
  "source": "// SPDX-License-Identifier: MIT\r\npragma solidity ^0.8.0;\r\n\r\ncontract ToDoList {\r\n    struct Task {\r\n        uint id;\r\n        string content;\r\n        bool completed;\r\n        bool deleted; // New field to mark if the task has been deleted\r\n    }\r\n\r\n    event TaskCreated(uint indexed id, string content, bool completed);\r\n    event TaskCompleted(uint indexed id, bool completed);\r\n    event TaskEdited(uint indexed id, string content);\r\n    event TaskDeleted(uint indexed id);\r\n\r\n    mapping(uint => Task) public tasks;\r\n    uint public tasksCount;\r\n\r\n    constructor() {\r\n        tasksCount = 0;\r\n    }\r\n\r\n    function createTask(string memory _content) public {\r\n        require(bytes(_content).length > 0, \"Task content cannot be empty.\");\r\n        tasksCount++;\r\n        tasks[tasksCount] = Task(tasksCount, _content, false, false); // Initialize 'deleted' as false\r\n        emit TaskCreated(tasksCount, _content, false);\r\n    }\r\n\r\n    function toggleCompleted(uint _id) public {\r\n        require(_id > 0 && _id <= tasksCount, \"Task does not exist.\");\r\n        require(!tasks[_id].deleted, \"Task has been deleted.\");\r\n        tasks[_id].completed = !tasks[_id].completed;\r\n        emit TaskCompleted(_id, tasks[_id].completed);\r\n    }\r\n\r\n    function editTask(uint _id, string memory _newContent) public {\r\n        require(_id > 0 && _id <= tasksCount, \"Task does not exist.\");\r\n        require(!tasks[_id].deleted, \"Task has been deleted.\");\r\n        require(bytes(_newContent).length > 0, \"Task content cannot be empty.\");\r\n        tasks[_id].content = _newContent;\r\n        emit TaskEdited(_id, _newContent);\r\n    }\r\n\r\n    function deleteTask(uint _id) public {\r\n        require(_id > 0 && _id <= tasksCount, \"Task does not exist.\");\r\n        tasks[_id].deleted = true; // Mark the task as deleted\r\n        emit TaskDeleted(_id);\r\n    }\r\n\r\n    function getTask(uint _id) public view returns (Task memory) {\r\n        require(_id > 0 && _id <= tasksCount, \"Task does not exist.\");\r\n        require(!tasks[_id].deleted, \"Task has been deleted.\");\r\n        return tasks[_id];\r\n    }\r\n}\r\n",
  "sourcePath": "D:\\smart contract\\contracts\\TodoList.sol",
  "compiler": {
    "name": "solc",
    "version": "0.8.0+commit.c7dfd78e.Emscripten.clang"
  },
  "schemaVersion": "3.4.16",
  "updatedAt": "2024-04-04T12:55:02.082Z",
  "networkType": "ethereum",
  "devdoc": {
    "kind": "dev",
    "methods": {},
    "version": 1
  },
  "userdoc": {
    "kind": "user",
    "methods": {},
    "version": 1
  }
}